{
  "contractName": "HighscoreManager",
  "abi": [
    {
      "constant": true,
      "inputs": [],
      "name": "highscoreHolder",
      "outputs": [
        {
          "name": "",
          "type": "address"
        }
      ],
      "payable": false,
      "stateMutability": "view",
      "type": "function"
    },
    {
      "constant": true,
      "inputs": [
        {
          "name": "",
          "type": "address"
        }
      ],
      "name": "highscoreMapping",
      "outputs": [
        {
          "name": "lowerHighscoreAddress",
          "type": "address"
        },
        {
          "name": "higherHighscoreAddress",
          "type": "address"
        },
        {
          "name": "numberOfWins",
          "type": "uint256"
        },
        {
          "name": "timeOfLastWin",
          "type": "uint256"
        }
      ],
      "payable": false,
      "stateMutability": "view",
      "type": "function"
    },
    {
      "inputs": [
        {
          "name": "_gameManager",
          "type": "address"
        }
      ],
      "payable": false,
      "stateMutability": "nonpayable",
      "type": "constructor"
    },
    {
      "anonymous": false,
      "inputs": [
        {
          "indexed": false,
          "name": "_for",
          "type": "address"
        },
        {
          "indexed": false,
          "name": "_totalWins",
          "type": "uint256"
        }
      ],
      "name": "NewWinAdded",
      "type": "event"
    },
    {
      "constant": false,
      "inputs": [
        {
          "name": "_for",
          "type": "address"
        }
      ],
      "name": "addWin",
      "outputs": [],
      "payable": false,
      "stateMutability": "nonpayable",
      "type": "function"
    },
    {
      "constant": true,
      "inputs": [],
      "name": "getTop10",
      "outputs": [
        {
          "name": "",
          "type": "address[10]"
        },
        {
          "name": "",
          "type": "uint256[10]"
        }
      ],
      "payable": false,
      "stateMutability": "view",
      "type": "function"
    }
  ],
  "bytecode": "0x608060405234801561001057600080fd5b506040516020806118628339810180604052602081101561003057600080fd5b8101908080519060200190929190505050806000806101000a81548173ffffffffffffffffffffffffffffffffffffffff021916908373ffffffffffffffffffffffffffffffffffffffff160217905550506117d1806100916000396000f3fe608060405260043610610062576000357c0100000000000000000000000000000000000000000000000000000000900463ffffffff16806307f9089c1461006757806326dd1bd0146100b857806384837ee11461010f5780639ad0fe9714610191575b600080fd5b34801561007357600080fd5b506100b66004803603602081101561008a57600080fd5b81019080803573ffffffffffffffffffffffffffffffffffffffff169060200190929190505050610263565b005b3480156100c457600080fd5b506100cd611551565b604051808273ffffffffffffffffffffffffffffffffffffffff1673ffffffffffffffffffffffffffffffffffffffff16815260200191505060405180910390f35b34801561011b57600080fd5b50610124611577565b6040518083600a60200280838360005b8381101561014f578082015181840152602081019050610134565b5050505090500182600a60200280838360005b8381101561017d578082015181840152602081019050610162565b505050509050019250505060405180910390f35b34801561019d57600080fd5b506101e0600480360360208110156101b457600080fd5b81019080803573ffffffffffffffffffffffffffffffffffffffff1690602001909291905050506116ed565b604051808573ffffffffffffffffffffffffffffffffffffffff1673ffffffffffffffffffffffffffffffffffffffff1681526020018473ffffffffffffffffffffffffffffffffffffffff1673ffffffffffffffffffffffffffffffffffffffff16815260200183815260200182815260200194505050505060405180910390f35b6000809054906101000a900473ffffffffffffffffffffffffffffffffffffffff1673ffffffffffffffffffffffffffffffffffffffff163373ffffffffffffffffffffffffffffffffffffffff161415156102be57600080fd5b600160008273ffffffffffffffffffffffffffffffffffffffff1673ffffffffffffffffffffffffffffffffffffffff1681526020019081526020016000206002016000815480929190600101919050555042600160008373ffffffffffffffffffffffffffffffffffffffff1673ffffffffffffffffffffffffffffffffffffffff168152602001908152602001600020600301819055507fb7a0060a2a287fabfa450394deba5f47c191e787c8f4c63e3f6e788d0678f0a381600160008473ffffffffffffffffffffffffffffffffffffffff1673ffffffffffffffffffffffffffffffffffffffff16815260200190815260200160002060020154604051808373ffffffffffffffffffffffffffffffffffffffff1673ffffffffffffffffffffffffffffffffffffffff1681526020018281526020019250505060405180910390a1600073ffffffffffffffffffffffffffffffffffffffff16600260009054906101000a900473ffffffffffffffffffffffffffffffffffffffff1673ffffffffffffffffffffffffffffffffffffffff1614156104a15780600260006101000a81548173ffffffffffffffffffffffffffffffffffffffff021916908373ffffffffffffffffffffffffffffffffffffffff16021790555061154e565b6000600260009054906101000a900473ffffffffffffffffffffffffffffffffffffffff16905060005b600a8111151561154b57600160008473ffffffffffffffffffffffffffffffffffffffff1673ffffffffffffffffffffffffffffffffffffffff16815260200190815260200160002060020154600160008473ffffffffffffffffffffffffffffffffffffffff1673ffffffffffffffffffffffffffffffffffffffff168152602001908152602001600020600201541115801561059557508273ffffffffffffffffffffffffffffffffffffffff168273ffffffffffffffffffffffffffffffffffffffff1614155b15610ec357600073ffffffffffffffffffffffffffffffffffffffff16600160008573ffffffffffffffffffffffffffffffffffffffff1673ffffffffffffffffffffffffffffffffffffffff16815260200190815260200160002060000160009054906101000a900473ffffffffffffffffffffffffffffffffffffffff1673ffffffffffffffffffffffffffffffffffffffff1614151561077857600160008473ffffffffffffffffffffffffffffffffffffffff1673ffffffffffffffffffffffffffffffffffffffff16815260200190815260200160002060010160009054906101000a900473ffffffffffffffffffffffffffffffffffffffff1660016000600160008773ffffffffffffffffffffffffffffffffffffffff1673ffffffffffffffffffffffffffffffffffffffff16815260200190815260200160002060000160009054906101000a900473ffffffffffffffffffffffffffffffffffffffff1673ffffffffffffffffffffffffffffffffffffffff1673ffffffffffffffffffffffffffffffffffffffff16815260200190815260200160002060010160006101000a81548173ffffffffffffffffffffffffffffffffffffffff021916908373ffffffffffffffffffffffffffffffffffffffff1602179055505b600073ffffffffffffffffffffffffffffffffffffffff16600160008573ffffffffffffffffffffffffffffffffffffffff1673ffffffffffffffffffffffffffffffffffffffff16815260200190815260200160002060010160009054906101000a900473ffffffffffffffffffffffffffffffffffffffff1673ffffffffffffffffffffffffffffffffffffffff1614151561095657600160008473ffffffffffffffffffffffffffffffffffffffff1673ffffffffffffffffffffffffffffffffffffffff16815260200190815260200160002060000160009054906101000a900473ffffffffffffffffffffffffffffffffffffffff1660016000600160008773ffffffffffffffffffffffffffffffffffffffff1673ffffffffffffffffffffffffffffffffffffffff16815260200190815260200160002060010160009054906101000a900473ffffffffffffffffffffffffffffffffffffffff1673ffffffffffffffffffffffffffffffffffffffff1673ffffffffffffffffffffffffffffffffffffffff16815260200190815260200160002060000160006101000a81548173ffffffffffffffffffffffffffffffffffffffff021916908373ffffffffffffffffffffffffffffffffffffffff1602179055505b81600160008573ffffffffffffffffffffffffffffffffffffffff1673ffffffffffffffffffffffffffffffffffffffff16815260200190815260200160002060000160006101000a81548173ffffffffffffffffffffffffffffffffffffffff021916908373ffffffffffffffffffffffffffffffffffffffff160217905550600073ffffffffffffffffffffffffffffffffffffffff16600160008473ffffffffffffffffffffffffffffffffffffffff1673ffffffffffffffffffffffffffffffffffffffff16815260200190815260200160002060010160009054906101000a900473ffffffffffffffffffffffffffffffffffffffff1673ffffffffffffffffffffffffffffffffffffffff1614158015610b0457508273ffffffffffffffffffffffffffffffffffffffff16600160008473ffffffffffffffffffffffffffffffffffffffff1673ffffffffffffffffffffffffffffffffffffffff16815260200190815260200160002060010160009054906101000a900473ffffffffffffffffffffffffffffffffffffffff1673ffffffffffffffffffffffffffffffffffffffff1614155b15610bf157600160008373ffffffffffffffffffffffffffffffffffffffff1673ffffffffffffffffffffffffffffffffffffffff16815260200190815260200160002060010160009054906101000a900473ffffffffffffffffffffffffffffffffffffffff16600160008573ffffffffffffffffffffffffffffffffffffffff1673ffffffffffffffffffffffffffffffffffffffff16815260200190815260200160002060010160006101000a81548173ffffffffffffffffffffffffffffffffffffffff021916908373ffffffffffffffffffffffffffffffffffffffff160217905550610c74565b6000600160008573ffffffffffffffffffffffffffffffffffffffff1673ffffffffffffffffffffffffffffffffffffffff16815260200190815260200160002060010160006101000a81548173ffffffffffffffffffffffffffffffffffffffff021916908373ffffffffffffffffffffffffffffffffffffffff1602179055505b600073ffffffffffffffffffffffffffffffffffffffff16600160008473ffffffffffffffffffffffffffffffffffffffff1673ffffffffffffffffffffffffffffffffffffffff16815260200190815260200160002060010160009054906101000a900473ffffffffffffffffffffffffffffffffffffffff1673ffffffffffffffffffffffffffffffffffffffff16141515610df0578260016000600160008673ffffffffffffffffffffffffffffffffffffffff1673ffffffffffffffffffffffffffffffffffffffff16815260200190815260200160002060010160009054906101000a900473ffffffffffffffffffffffffffffffffffffffff1673ffffffffffffffffffffffffffffffffffffffff1673ffffffffffffffffffffffffffffffffffffffff16815260200190815260200160002060000160006101000a81548173ffffffffffffffffffffffffffffffffffffffff021916908373ffffffffffffffffffffffffffffffffffffffff1602179055505b82600160008473ffffffffffffffffffffffffffffffffffffffff1673ffffffffffffffffffffffffffffffffffffffff16815260200190815260200160002060010160006101000a81548173ffffffffffffffffffffffffffffffffffffffff021916908373ffffffffffffffffffffffffffffffffffffffff1602179055506000811415610ebc5782600260006101000a81548173ffffffffffffffffffffffffffffffffffffffff021916908373ffffffffffffffffffffffffffffffffffffffff1602179055505b505061154e565b600073ffffffffffffffffffffffffffffffffffffffff16600160008473ffffffffffffffffffffffffffffffffffffffff1673ffffffffffffffffffffffffffffffffffffffff16815260200190815260200160002060000160009054906101000a900473ffffffffffffffffffffffffffffffffffffffff1673ffffffffffffffffffffffffffffffffffffffff16148015610f8d57508273ffffffffffffffffffffffffffffffffffffffff168273ffffffffffffffffffffffffffffffffffffffff1614155b156114d957600073ffffffffffffffffffffffffffffffffffffffff16600160008573ffffffffffffffffffffffffffffffffffffffff1673ffffffffffffffffffffffffffffffffffffffff16815260200190815260200160002060000160009054906101000a900473ffffffffffffffffffffffffffffffffffffffff1673ffffffffffffffffffffffffffffffffffffffff1614151561117057600160008473ffffffffffffffffffffffffffffffffffffffff1673ffffffffffffffffffffffffffffffffffffffff16815260200190815260200160002060010160009054906101000a900473ffffffffffffffffffffffffffffffffffffffff1660016000600160008773ffffffffffffffffffffffffffffffffffffffff1673ffffffffffffffffffffffffffffffffffffffff16815260200190815260200160002060000160009054906101000a900473ffffffffffffffffffffffffffffffffffffffff1673ffffffffffffffffffffffffffffffffffffffff1673ffffffffffffffffffffffffffffffffffffffff16815260200190815260200160002060010160006101000a81548173ffffffffffffffffffffffffffffffffffffffff021916908373ffffffffffffffffffffffffffffffffffffffff1602179055505b600073ffffffffffffffffffffffffffffffffffffffff16600160008573ffffffffffffffffffffffffffffffffffffffff1673ffffffffffffffffffffffffffffffffffffffff16815260200190815260200160002060010160009054906101000a900473ffffffffffffffffffffffffffffffffffffffff1673ffffffffffffffffffffffffffffffffffffffff1614151561134e57600160008473ffffffffffffffffffffffffffffffffffffffff1673ffffffffffffffffffffffffffffffffffffffff16815260200190815260200160002060000160009054906101000a900473ffffffffffffffffffffffffffffffffffffffff1660016000600160008773ffffffffffffffffffffffffffffffffffffffff1673ffffffffffffffffffffffffffffffffffffffff16815260200190815260200160002060010160009054906101000a900473ffffffffffffffffffffffffffffffffffffffff1673ffffffffffffffffffffffffffffffffffffffff1673ffffffffffffffffffffffffffffffffffffffff16815260200190815260200160002060000160006101000a81548173ffffffffffffffffffffffffffffffffffffffff021916908373ffffffffffffffffffffffffffffffffffffffff1602179055505b82600160008473ffffffffffffffffffffffffffffffffffffffff1673ffffffffffffffffffffffffffffffffffffffff16815260200190815260200160002060000160006101000a81548173ffffffffffffffffffffffffffffffffffffffff021916908373ffffffffffffffffffffffffffffffffffffffff16021790555081600160008573ffffffffffffffffffffffffffffffffffffffff1673ffffffffffffffffffffffffffffffffffffffff16815260200190815260200160002060010160006101000a81548173ffffffffffffffffffffffffffffffffffffffff021916908373ffffffffffffffffffffffffffffffffffffffff1602179055506000600160008573ffffffffffffffffffffffffffffffffffffffff1673ffffffffffffffffffffffffffffffffffffffff16815260200190815260200160002060000160006101000a81548173ffffffffffffffffffffffffffffffffffffffff021916908373ffffffffffffffffffffffffffffffffffffffff160217905550505061154e565b8080600101915050600160008373ffffffffffffffffffffffffffffffffffffffff1673ffffffffffffffffffffffffffffffffffffffff16815260200190815260200160002060000160009054906101000a900473ffffffffffffffffffffffffffffffffffffffff1691506104cb565b50505b50565b600260009054906101000a900473ffffffffffffffffffffffffffffffffffffffff1681565b61157f61175d565b611587611781565b61158f61175d565b611597611781565b6000600260009054906101000a900473ffffffffffffffffffffffffffffffffffffffff16905060008090505b600a8110156116df57818482600a811015156115dc57fe5b602002019073ffffffffffffffffffffffffffffffffffffffff16908173ffffffffffffffffffffffffffffffffffffffff1681525050600160008373ffffffffffffffffffffffffffffffffffffffff1673ffffffffffffffffffffffffffffffffffffffff168152602001908152602001600020600201548382600a8110151561166457fe5b602002018181525050600160008373ffffffffffffffffffffffffffffffffffffffff1673ffffffffffffffffffffffffffffffffffffffff16815260200190815260200160002060000160009054906101000a900473ffffffffffffffffffffffffffffffffffffffff16915080806001019150506115c4565b508282945094505050509091565b60016020528060005260406000206000915090508060000160009054906101000a900473ffffffffffffffffffffffffffffffffffffffff16908060010160009054906101000a900473ffffffffffffffffffffffffffffffffffffffff16908060020154908060030154905084565b61014060405190810160405280600a90602082028038833980820191505090505090565b61014060405190810160405280600a9060208202803883398082019150509050509056fea165627a7a72305820c74850b4f487dd2100e8773c5247aa3013ad0f1e51d58cd80a27b8ab60d6c76f0029",
  "source": "pragma solidity ^0.5.0;\r\n\r\ncontract HighscoreManager {\r\n    address gameManager;\r\n    \r\n    event NewWinAdded(address _for, uint _totalWins);\r\n    \r\n    constructor(address _gameManager) public {\r\n        gameManager = _gameManager;\r\n    }\r\n    \r\n    modifier onlyGameManager() {\r\n        require(msg.sender == gameManager);\r\n        _;\r\n    }\r\n    \r\n    struct Highscore {\r\n        address lowerHighscoreAddress;\r\n        address higherHighscoreAddress;\r\n        \r\n        uint numberOfWins;\r\n        uint timeOfLastWin;\r\n    }\r\n    \r\n    mapping(address => Highscore) public highscoreMapping;\r\n    address public highscoreHolder;\r\n    \r\n    function addWin(address _for) public onlyGameManager {\r\n        highscoreMapping[_for].numberOfWins++;\r\n        highscoreMapping[_for].timeOfLastWin = now;\r\n        \r\n        emit NewWinAdded(_for, highscoreMapping[_for].numberOfWins);\r\n        \r\n        if(highscoreHolder == address(0)) {\r\n            highscoreHolder = _for;\r\n            return;\r\n        }\r\n        \r\n        address currentPosition = highscoreHolder;\r\n        uint count;\r\n        while(count <= 10) {\r\n            \r\n            if(highscoreMapping[currentPosition].numberOfWins <= highscoreMapping[_for].numberOfWins && currentPosition != _for) {\r\n                //first detatch the item\r\n                if(highscoreMapping[_for].lowerHighscoreAddress != address(0)) {\r\n                    highscoreMapping[highscoreMapping[_for].lowerHighscoreAddress].higherHighscoreAddress = highscoreMapping[_for].higherHighscoreAddress;\r\n                }\r\n                if(highscoreMapping[_for].higherHighscoreAddress != address(0)) {\r\n                    highscoreMapping[highscoreMapping[_for].higherHighscoreAddress].lowerHighscoreAddress = highscoreMapping[_for].lowerHighscoreAddress;\r\n                }\r\n                \r\n                //assign the right upper and lower bounds\r\n                highscoreMapping[_for].lowerHighscoreAddress = currentPosition;\r\n                if(highscoreMapping[currentPosition].higherHighscoreAddress != address(0) && highscoreMapping[currentPosition].higherHighscoreAddress != _for) {\r\n                    highscoreMapping[_for].higherHighscoreAddress = highscoreMapping[currentPosition].higherHighscoreAddress;\r\n                } else {\r\n                    highscoreMapping[_for].higherHighscoreAddress = address(0);\r\n                }\r\n    \r\n                //re-attach the item inside correct currentPosition´\r\n                if(highscoreMapping[currentPosition].higherHighscoreAddress != address(0)) {\r\n                    highscoreMapping[highscoreMapping[currentPosition].higherHighscoreAddress].lowerHighscoreAddress = _for;\r\n                }\r\n                highscoreMapping[currentPosition].higherHighscoreAddress = _for;\r\n                \r\n                //if necessary we assign a new highscore holder\r\n                if(count == 0) {\r\n                    highscoreHolder = _for;\r\n                }\r\n                return;\r\n            }\r\n            \r\n            if(highscoreMapping[currentPosition].lowerHighscoreAddress == address(0) && currentPosition != _for) {\r\n                //first detatch the item\r\n                if(highscoreMapping[_for].lowerHighscoreAddress != address(0)) {\r\n                    highscoreMapping[highscoreMapping[_for].lowerHighscoreAddress].higherHighscoreAddress = highscoreMapping[_for].higherHighscoreAddress;\r\n                }\r\n                if(highscoreMapping[_for].higherHighscoreAddress != address(0)) {\r\n                    highscoreMapping[highscoreMapping[_for].higherHighscoreAddress].lowerHighscoreAddress = highscoreMapping[_for].lowerHighscoreAddress;\r\n                }\r\n                \r\n                highscoreMapping[currentPosition].lowerHighscoreAddress = _for;\r\n                highscoreMapping[_for].higherHighscoreAddress = currentPosition;\r\n                highscoreMapping[_for].lowerHighscoreAddress = address(0);\r\n                return;\r\n            }\r\n            \r\n            count++;\r\n            currentPosition = highscoreMapping[currentPosition].lowerHighscoreAddress;\r\n        }\r\n    }\r\n    \r\n    function getTop10() public view returns(address[10] memory, uint[10] memory) {\r\n        address[10] memory topTenAddresses;\r\n        uint[10] memory topTenWins;\r\n        \r\n        address currentPosition = highscoreHolder;\r\n        for(uint i=0; i<10; i++) {\r\n            topTenAddresses[i] = currentPosition;\r\n            topTenWins[i] = highscoreMapping[currentPosition].numberOfWins;\r\n            currentPosition = highscoreMapping[currentPosition].lowerHighscoreAddress;\r\n        }\r\n        \r\n        return (topTenAddresses, topTenWins);\r\n        \r\n    }\r\n}",
  "sourcePath": "C:\\Users\\thoma\\Dropbox\\Projects\\Course 10 - Codestars Blockchain Course\\Code\\S04 - Our Game in Truffle\\contracts\\Highscoremanager.sol",
  "compiler": {
    "name": "solc",
    "version": "0.5.0+commit.1d4f565a.Emscripten.clang"
  },
  "schemaVersion": "3.0.2",
  "updatedAt": "2019-02-27T09:52:17.410Z",
  "devdoc": {
    "methods": {}
  },
  "userdoc": {
    "methods": {}
  }
}