{
  "contractName": "ThreeInARow",
  "abi": [
    {
      "constant": true,
      "inputs": [],
      "name": "player2",
      "outputs": [
        {
          "name": "",
          "type": "address"
        }
      ],
      "payable": false,
      "stateMutability": "view",
      "type": "function"
    },
    {
      "constant": true,
      "inputs": [],
      "name": "gameCost",
      "outputs": [
        {
          "name": "",
          "type": "uint256"
        }
      ],
      "payable": false,
      "stateMutability": "view",
      "type": "function"
    },
    {
      "constant": true,
      "inputs": [],
      "name": "player1",
      "outputs": [
        {
          "name": "",
          "type": "address"
        }
      ],
      "payable": false,
      "stateMutability": "view",
      "type": "function"
    },
    {
      "inputs": [
        {
          "name": "_addrGameManager",
          "type": "address"
        },
        {
          "name": "_player1",
          "type": "address"
        }
      ],
      "payable": true,
      "stateMutability": "payable",
      "type": "constructor"
    },
    {
      "anonymous": false,
      "inputs": [
        {
          "indexed": false,
          "name": "_player",
          "type": "address"
        }
      ],
      "name": "PlayerJoined",
      "type": "event"
    },
    {
      "anonymous": false,
      "inputs": [
        {
          "indexed": false,
          "name": "_player",
          "type": "address"
        }
      ],
      "name": "NextPlayer",
      "type": "event"
    },
    {
      "anonymous": false,
      "inputs": [
        {
          "indexed": false,
          "name": "_winner",
          "type": "address"
        }
      ],
      "name": "GameOverWithWin",
      "type": "event"
    },
    {
      "anonymous": false,
      "inputs": [],
      "name": "GameOverWithDraw",
      "type": "event"
    },
    {
      "anonymous": false,
      "inputs": [
        {
          "indexed": false,
          "name": "_receiver",
          "type": "address"
        },
        {
          "indexed": false,
          "name": "_amountInWei",
          "type": "uint256"
        }
      ],
      "name": "PayoutSuccess",
      "type": "event"
    },
    {
      "constant": false,
      "inputs": [],
      "name": "joinGame",
      "outputs": [],
      "payable": true,
      "stateMutability": "payable",
      "type": "function"
    },
    {
      "constant": true,
      "inputs": [],
      "name": "getBoard",
      "outputs": [
        {
          "name": "",
          "type": "address[3][3]"
        }
      ],
      "payable": false,
      "stateMutability": "view",
      "type": "function"
    },
    {
      "constant": false,
      "inputs": [
        {
          "name": "x",
          "type": "uint8"
        },
        {
          "name": "y",
          "type": "uint8"
        }
      ],
      "name": "setStone",
      "outputs": [],
      "payable": false,
      "stateMutability": "nonpayable",
      "type": "function"
    },
    {
      "constant": false,
      "inputs": [
        {
          "name": "_to",
          "type": "address"
        }
      ],
      "name": "withdrawWin",
      "outputs": [],
      "payable": false,
      "stateMutability": "nonpayable",
      "type": "function"
    },
    {
      "constant": false,
      "inputs": [],
      "name": "emergencyCashout",
      "outputs": [],
      "payable": false,
      "stateMutability": "nonpayable",
      "type": "function"
    }
  ],
  "bytecode": "0x608060405267016345785d8a000060015560b46012556040516040806118648339810180604052604081101561003457600080fd5b810190808051906020019092919080519060200190929190505050816000806101000a81548173ffffffffffffffffffffffffffffffffffffffff021916908373ffffffffffffffffffffffffffffffffffffffff16021790555060015434141515610108576040517f08c379a000000000000000000000000000000000000000000000000000000000815260040180806020018281038252601c8152602001807f5375626d6974206d6f7265206d6f6e6579212041626f7274696e67210000000081525060200191505060405180910390fd5b80600260006101000a81548173ffffffffffffffffffffffffffffffffffffffff021916908373ffffffffffffffffffffffffffffffffffffffff160217905550505061170a8061015a6000396000f3fe60806040526004361061008e576000357c0100000000000000000000000000000000000000000000000000000000900463ffffffff168063216db3c2146100935780633264a34b146100aa57806359a5f12d146101205780637d3f907414610177578063ae033dd0146101c2578063cab896dc14610213578063d30895e41461023e578063d4f77b1c14610295575b600080fd5b34801561009f57600080fd5b506100a861029f565b005b3480156100b657600080fd5b506100bf6102d4565b604051808260036000925b818410156101105782846020020151600360200280838360005b838110156100ff5780820151818401526020810190506100e4565b5050505090500192600101926100ca565b9250505091505060405180910390f35b34801561012c57600080fd5b5061013561038d565b604051808273ffffffffffffffffffffffffffffffffffffffff1673ffffffffffffffffffffffffffffffffffffffff16815260200191505060405180910390f35b34801561018357600080fd5b506101c06004803603604081101561019a57600080fd5b81019080803560ff169060200190929190803560ff1690602001909291905050506103b3565b005b3480156101ce57600080fd5b50610211600480360360208110156101e557600080fd5b81019080803573ffffffffffffffffffffffffffffffffffffffff169060200190929190505050610bc2565b005b34801561021f57600080fd5b50610228610e16565b6040518082815260200191505060405180910390f35b34801561024a57600080fd5b50610253610e1c565b604051808273ffffffffffffffffffffffffffffffffffffffff1673ffffffffffffffffffffffffffffffffffffffff16815260200191505060405180910390f35b61029d610e42565b005b426011541015156102af57600080fd5b600760009054906101000a900460ff1615156102ca57600080fd5b6102d2611188565b565b6102dc61168c565b6008600380602002604051908101604052809291906000905b8282101561038457838260030201600380602002604051908101604052809291908260038015610370576020028201915b8160009054906101000a900473ffffffffffffffffffffffffffffffffffffffff1673ffffffffffffffffffffffffffffffffffffffff1681526020019060010190808311610326575b5050505050815260200190600101906102f5565b50505050905090565b600360009054906101000a900473ffffffffffffffffffffffffffffffffffffffff1681565b600060039050600073ffffffffffffffffffffffffffffffffffffffff1660088460ff166003811015156103e357fe5b600302018360ff166003811015156103f757fe5b0160009054906101000a900473ffffffffffffffffffffffffffffffffffffffff1673ffffffffffffffffffffffffffffffffffffffff1614151561043b57600080fd5b600760009054906101000a900460ff16151561045357fe5b8060ff168360ff1610151561046457fe5b8060ff168260ff1610151561047557fe5b600460009054906101000a900473ffffffffffffffffffffffffffffffffffffffff1673ffffffffffffffffffffffffffffffffffffffff163373ffffffffffffffffffffffffffffffffffffffff161415156104d157600080fd5b42601154101515156104e257600080fd5b6004601481819054906101000a900460ff168092919060010191906101000a81548160ff021916908360ff160217905550503360088460ff1660038110151561052757fe5b600302018360ff1660038110151561053b57fe5b0160006101000a81548173ffffffffffffffffffffffffffffffffffffffff021916908373ffffffffffffffffffffffffffffffffffffffff16021790555060008090505b8160ff168160ff16101561068157600460009054906101000a900473ffffffffffffffffffffffffffffffffffffffff1673ffffffffffffffffffffffffffffffffffffffff1660088260ff166003811015156105d957fe5b600302018460ff166003811015156105ed57fe5b0160009054906101000a900473ffffffffffffffffffffffffffffffffffffffff1673ffffffffffffffffffffffffffffffffffffffff1614151561063157610681565b6001820360ff168160ff1614156106745761066d600460009054906101000a900473ffffffffffffffffffffffffffffffffffffffff166113eb565b5050610bbe565b8080600101915050610580565b5060008090505b8160ff168160ff16101561078957600460009054906101000a900473ffffffffffffffffffffffffffffffffffffffff1673ffffffffffffffffffffffffffffffffffffffff1660088560ff166003811015156106e157fe5b600302018260ff166003811015156106f557fe5b0160009054906101000a900473ffffffffffffffffffffffffffffffffffffffff1673ffffffffffffffffffffffffffffffffffffffff1614151561073957610789565b6001820360ff168160ff16141561077c57610775600460009054906101000a900473ffffffffffffffffffffffffffffffffffffffff166113eb565b5050610bbe565b8080600101915050610688565b508160ff168360ff1614156108a15760008090505b8160ff168160ff16101561089f57600460009054906101000a900473ffffffffffffffffffffffffffffffffffffffff1673ffffffffffffffffffffffffffffffffffffffff1660088260ff166003811015156107f757fe5b600302018260ff1660038110151561080b57fe5b0160009054906101000a900473ffffffffffffffffffffffffffffffffffffffff1673ffffffffffffffffffffffffffffffffffffffff1614151561084f5761089f565b6001820360ff168160ff1614156108925761088b600460009054906101000a900473ffffffffffffffffffffffffffffffffffffffff166113eb565b5050610bbe565b808060010191505061079e565b505b6001810360ff1682840160ff1614156109c25760008090505b8160ff168160ff1610156109c057600460009054906101000a900473ffffffffffffffffffffffffffffffffffffffff1673ffffffffffffffffffffffffffffffffffffffff1660088260ff1660038110151561091357fe5b6003020182600185030360ff1660038110151561092c57fe5b0160009054906101000a900473ffffffffffffffffffffffffffffffffffffffff1673ffffffffffffffffffffffffffffffffffffffff16141515610970576109c0565b6001820360ff168160ff1614156109b3576109ac600460009054906101000a900473ffffffffffffffffffffffffffffffffffffffff166113eb565b5050610bbe565b80806001019150506108ba565b505b60028160ff160a60ff16600460149054906101000a900460ff1660ff1614156109f3576109ed611188565b50610bbe565b600260009054906101000a900473ffffffffffffffffffffffffffffffffffffffff1673ffffffffffffffffffffffffffffffffffffffff16600460009054906101000a900473ffffffffffffffffffffffffffffffffffffffff1673ffffffffffffffffffffffffffffffffffffffff161415610ad357600360009054906101000a900473ffffffffffffffffffffffffffffffffffffffff16600460006101000a81548173ffffffffffffffffffffffffffffffffffffffff021916908373ffffffffffffffffffffffffffffffffffffffff160217905550610b37565b600260009054906101000a900473ffffffffffffffffffffffffffffffffffffffff16600460006101000a81548173ffffffffffffffffffffffffffffffffffffffff021916908373ffffffffffffffffffffffffffffffffffffffff1602179055505b7f637351f91da430278368fb3e486c8c3da47b2e6ce4d28b2c404cb044702ca7e1600460009054906101000a900473ffffffffffffffffffffffffffffffffffffffff16604051808273ffffffffffffffffffffffffffffffffffffffff1673ffffffffffffffffffffffffffffffffffffffff16815260200191505060405180910390a1505b5050565b6000600260009054906101000a900473ffffffffffffffffffffffffffffffffffffffff1673ffffffffffffffffffffffffffffffffffffffff163373ffffffffffffffffffffffffffffffffffffffff161415610ceb576000600554111515610c2b57600080fd5b600554905060006005819055508173ffffffffffffffffffffffffffffffffffffffff166108fc829081150290604051600060405180830381858888f19350505050158015610c7e573d6000803e3d6000fd5b507f2a44162a2d5223e37cacacc3f626dcfee1396e0be3616534c5c7b718f786b6738282604051808373ffffffffffffffffffffffffffffffffffffffff1673ffffffffffffffffffffffffffffffffffffffff1681526020018281526020019250505060405180910390a15b600360009054906101000a900473ffffffffffffffffffffffffffffffffffffffff1673ffffffffffffffffffffffffffffffffffffffff163373ffffffffffffffffffffffffffffffffffffffff161415610e12576000600654111515610d5257600080fd5b600654905060006006819055508173ffffffffffffffffffffffffffffffffffffffff166108fc829081150290604051600060405180830381858888f19350505050158015610da5573d6000803e3d6000fd5b507f2a44162a2d5223e37cacacc3f626dcfee1396e0be3616534c5c7b718f786b6738282604051808373ffffffffffffffffffffffffffffffffffffffff1673ffffffffffffffffffffffffffffffffffffffff1681526020018281526020019250505060405180910390a15b5050565b60015481565b600260009054906101000a900473ffffffffffffffffffffffffffffffffffffffff1681565b600073ffffffffffffffffffffffffffffffffffffffff16600360009054906101000a900473ffffffffffffffffffffffffffffffffffffffff1673ffffffffffffffffffffffffffffffffffffffff16141515610e9c57fe5b60001515600760009054906101000a900460ff161515141515610ebb57fe5b60015434141515610f34576040517f08c379a000000000000000000000000000000000000000000000000000000000815260040180806020018281038252601c8152602001807f5375626d6974206d6f7265206d6f6e6579212041626f7274696e67210000000081525060200191505060405180910390fd5b33600360006101000a81548173ffffffffffffffffffffffffffffffffffffffff021916908373ffffffffffffffffffffffffffffffffffffffff1602179055507f31e760aa525306aba638a784082a013b6a1cc0a9a1789f3f22281c0453b10b1f600360009054906101000a900473ffffffffffffffffffffffffffffffffffffffff16604051808273ffffffffffffffffffffffffffffffffffffffff1673ffffffffffffffffffffffffffffffffffffffff16815260200191505060405180910390a1600060024381151561100857fe5b06141561107757600360009054906101000a900473ffffffffffffffffffffffffffffffffffffffff16600460006101000a81548173ffffffffffffffffffffffffffffffffffffffff021916908373ffffffffffffffffffffffffffffffffffffffff1602179055506110db565b600260009054906101000a900473ffffffffffffffffffffffffffffffffffffffff16600460006101000a81548173ffffffffffffffffffffffffffffffffffffffff021916908373ffffffffffffffffffffffffffffffffffffffff1602179055505b6001600760006101000a81548160ff02191690831515021790555060125442016011819055507f637351f91da430278368fb3e486c8c3da47b2e6ce4d28b2c404cb044702ca7e1600460009054906101000a900473ffffffffffffffffffffffffffffffffffffffff16604051808273ffffffffffffffffffffffffffffffffffffffff1673ffffffffffffffffffffffffffffffffffffffff16815260200191505060405180910390a1565b600060023073ffffffffffffffffffffffffffffffffffffffff16318115156111ad57fe5b04905060001515600260009054906101000a900473ffffffffffffffffffffffffffffffffffffffff1673ffffffffffffffffffffffffffffffffffffffff166108fc839081150290604051600060405180830381858888f193505050501515141561122857806005600082825401925050819055506112b6565b7f2a44162a2d5223e37cacacc3f626dcfee1396e0be3616534c5c7b718f786b673600260009054906101000a900473ffffffffffffffffffffffffffffffffffffffff1682604051808373ffffffffffffffffffffffffffffffffffffffff1673ffffffffffffffffffffffffffffffffffffffff1681526020018281526020019250505060405180910390a15b60001515600360009054906101000a900473ffffffffffffffffffffffffffffffffffffffff1673ffffffffffffffffffffffffffffffffffffffff166108fc839081150290604051600060405180830381858888f193505050501515141561132e57806006600082825401925050819055506113bc565b7f2a44162a2d5223e37cacacc3f626dcfee1396e0be3616534c5c7b718f786b673600360009054906101000a900473ffffffffffffffffffffffffffffffffffffffff1682604051808373ffffffffffffffffffffffffffffffffffffffff1673ffffffffffffffffffffffffffffffffffffffff1681526020018281526020019250505060405180910390a15b7f2207d46a2ba0f2acda06e9a222b40fd004e385738b3f868e63b2c0bfe4bc094c60405160405180910390a150565b6000600760006101000a81548160ff0219169083151502179055506000809054906101000a900473ffffffffffffffffffffffffffffffffffffffff1673ffffffffffffffffffffffffffffffffffffffff1663d2add17b826040518263ffffffff167c0100000000000000000000000000000000000000000000000000000000028152600401808273ffffffffffffffffffffffffffffffffffffffff1673ffffffffffffffffffffffffffffffffffffffff168152602001915050600060405180830381600087803b1580156114c257600080fd5b505af11580156114d6573d6000803e3d6000fd5b5050505060003073ffffffffffffffffffffffffffffffffffffffff16319050600115158273ffffffffffffffffffffffffffffffffffffffff166108fc839081150290604051600060405180830381858888f1935050505015151415156115b957600260009054906101000a900473ffffffffffffffffffffffffffffffffffffffff1673ffffffffffffffffffffffffffffffffffffffff168273ffffffffffffffffffffffffffffffffffffffff1614156115a357806005600082825401925050819055506115b4565b806006600082825401925050819055505b611625565b7f2a44162a2d5223e37cacacc3f626dcfee1396e0be3616534c5c7b718f786b6738282604051808373ffffffffffffffffffffffffffffffffffffffff1673ffffffffffffffffffffffffffffffffffffffff1681526020018281526020019250505060405180910390a15b7f8245a3876d42d9b0bdb7f24184c03fc24e3d8a079f492b1ec9ceae70b366edf982604051808273ffffffffffffffffffffffffffffffffffffffff1673ffffffffffffffffffffffffffffffffffffffff16815260200191505060405180910390a15050565b610120604051908101604052806003905b6116a56116bb565b81526020019060019003908161169d5790505090565b60606040519081016040528060039060208202803883398082019150509050509056fea165627a7a723058207b6f76c1305a3bd292428f093806dec10e62ea0dcdc74a75520a3c0542b383820029",
  "source": "pragma solidity ^0.5.0;\r\n\r\nimport {GameManager} from \"./GameManager.sol\";\r\n\r\ncontract ThreeInARow {\r\n    \r\n    GameManager gameManager;\r\n    \r\n    uint256 public gameCost = 0.1 ether;\r\n    \r\n    address payable public player1;\r\n    address payable public player2;\r\n    \r\n    address payable activePlayer;\r\n    \r\n    event PlayerJoined(address _player);\r\n    event NextPlayer(address _player);\r\n    \r\n    event GameOverWithWin(address _winner);\r\n    event GameOverWithDraw();\r\n    event PayoutSuccess(address _receiver, uint _amountInWei);\r\n    \r\n    uint8 movesCounter;\r\n    \r\n    uint balanceToWithdrawPlayer1;\r\n    uint balanceToWithdrawPlayer2;\r\n    \r\n    bool gameActive;\r\n    \r\n    address[3][3] gameBoard;\r\n    \r\n    uint gameValidUntil;\r\n    uint timeToReact = 3 minutes;\r\n    \r\n    constructor(address _addrGameManager, address payable _player1) public payable {\r\n        gameManager = GameManager(_addrGameManager);\r\n        require(msg.value == gameCost, \"Submit more money! Aborting!\");\r\n        player1 = _player1;\r\n        //more functionality here - later!\r\n    }\r\n    \r\n    function joinGame() public payable {\r\n        //here player2 joins the game\r\n        assert(player2 == address(0x0));\r\n        assert(gameActive == false);\r\n        require(msg.value == gameCost, \"Submit more money! Aborting!\");\r\n        \r\n        player2 = msg.sender;\r\n        emit PlayerJoined(player2);\r\n        \r\n        if(block.number % 2 == 0) {\r\n            activePlayer = player2;\r\n        } else {\r\n            activePlayer = player1;\r\n        }\r\n        \r\n        gameActive = true;\r\n        \r\n        gameValidUntil = now + timeToReact;\r\n        \r\n        emit NextPlayer(activePlayer);\r\n    }\r\n    \r\n    function getBoard() public view returns(address[3][3] memory) {\r\n        return gameBoard;\r\n    }\r\n    \r\n    function setStone(uint8 x, uint8 y) public {\r\n        uint8 boardSize = uint8(gameBoard.length);\r\n        require(gameBoard[x][y] == address(0));\r\n        assert(gameActive);\r\n        assert(x < boardSize);\r\n        assert(y < boardSize);\r\n        require(msg.sender == activePlayer);\r\n        require(gameValidUntil >= now);\r\n        movesCounter++;\r\n        gameBoard[x][y] = msg.sender;\r\n        \r\n        \r\n        \r\n        //check if it's a win!\r\n        /**\r\n         *  x | o |   \r\n         * ---|---|---\r\n         *    | x |\r\n         * ---|---|---\r\n         *  o |   |   \r\n         * */\r\n         for(uint8 i = 0; i < boardSize; i++) {\r\n             if(gameBoard[i][y] != activePlayer) {\r\n                 break;\r\n             }\r\n             \r\n             if(i == boardSize - 1) {\r\n                 setWinner(activePlayer);\r\n                 return;\r\n             }\r\n         }\r\n         for(uint8 i = 0; i < boardSize; i++) {\r\n             if(gameBoard[x][i] != activePlayer) {\r\n                 break;\r\n             }\r\n             \r\n             if(i == boardSize - 1) {\r\n                 setWinner(activePlayer);\r\n                 return;\r\n             }\r\n         }\r\n         \r\n         //diagonal\r\n         if(x == y) {\r\n             for(uint8 i = 0; i < boardSize; i++) {\r\n                 if(gameBoard[i][i] != activePlayer) {\r\n                     break;\r\n                 }\r\n                 \r\n                 if(i == boardSize-1) {\r\n                     setWinner(activePlayer);\r\n                     return;\r\n                 }\r\n             }\r\n         }\r\n         \r\n         //anti diagonal\r\n         if((x+y) == boardSize-1) {\r\n             for(uint8 i = 0; i < boardSize; i++) {\r\n                 if(gameBoard[i][(boardSize-1)-i] != activePlayer) {\r\n                     break;\r\n                 }\r\n                 \r\n                 if(i == boardSize-1) {\r\n                     setWinner(activePlayer);\r\n                     return;\r\n                 }\r\n             }\r\n         }\r\n        \r\n        //check if it's a draw\r\n        if(movesCounter == (boardSize**2)) {\r\n            setDraw();\r\n            return;\r\n        }\r\n        \r\n        if(activePlayer == player1) {\r\n            activePlayer = player2;\r\n        } else {\r\n            activePlayer = player1;\r\n        }\r\n        \r\n        emit NextPlayer(activePlayer);\r\n        //we set the stone here\r\n    }\r\n    \r\n    function setWinner(address payable _player) private {\r\n        gameActive = false;\r\n        gameManager.enterWinner(_player);\r\n        uint balanceToPayOut = address(this).balance;\r\n        if(_player.send(balanceToPayOut) != true) {\r\n            if(_player == player1) {\r\n                balanceToWithdrawPlayer1 += balanceToPayOut;\r\n            } else {\r\n                balanceToWithdrawPlayer2 += balanceToPayOut;\r\n            }\r\n        } else {\r\n            emit PayoutSuccess(_player, balanceToPayOut);\r\n        }\r\n        \r\n        emit GameOverWithWin(_player);\r\n    }\r\n    \r\n    function setDraw() private {\r\n        uint balanceToPayOut = address(this).balance / 2;\r\n        \r\n        if(player1.send(balanceToPayOut) == false) {\r\n            balanceToWithdrawPlayer1 += balanceToPayOut;\r\n        } else {\r\n            emit PayoutSuccess(player1, balanceToPayOut);\r\n        }\r\n        if(player2.send(balanceToPayOut) == false) {\r\n            balanceToWithdrawPlayer2 += balanceToPayOut;\r\n        } else {\r\n            emit PayoutSuccess(player2, balanceToPayOut);\r\n        }\r\n        \r\n        emit GameOverWithDraw();\r\n    }\r\n    \r\n    function withdrawWin(address payable _to) public {\r\n        uint balanceToWithdraw;\r\n        if(msg.sender == player1) {\r\n            require(balanceToWithdrawPlayer1 > 0);\r\n            balanceToWithdraw = balanceToWithdrawPlayer1;\r\n            balanceToWithdrawPlayer1 = 0;\r\n            _to.transfer(balanceToWithdraw);\r\n            emit PayoutSuccess(_to, balanceToWithdraw);\r\n        }\r\n        \r\n        if(msg.sender == player2) {\r\n            require(balanceToWithdrawPlayer2 > 0);\r\n            balanceToWithdraw = balanceToWithdrawPlayer2;\r\n            balanceToWithdrawPlayer2 = 0;\r\n            _to.transfer(balanceToWithdraw);\r\n            emit PayoutSuccess(_to, balanceToWithdraw);\r\n        }\r\n    }\r\n    \r\n    function emergencyCashout() public {\r\n        require(gameValidUntil < now);\r\n        require(gameActive);\r\n        setDraw();\r\n    }\r\n}",
  "sourcePath": "C:\\Users\\thoma\\Dropbox\\Projects\\Course 10 - Codestars Blockchain Course\\Code\\S04 - Our Game in Truffle\\contracts\\ThreeInARow.sol",
  "compiler": {
    "name": "solc",
    "version": "0.5.0+commit.1d4f565a.Emscripten.clang"
  },
  "schemaVersion": "3.0.2",
  "updatedAt": "2019-02-27T09:52:17.417Z",
  "devdoc": {
    "methods": {}
  },
  "userdoc": {
    "methods": {}
  }
}